:100000000C9459000C9476000C9476000C947600B5
:100010000C9476000C9476000C9476000C94FE0CF4
:100020000C9476000C9476000C9476000C94760078
:100030000C9476000C9476000C9476000C94760068
:100040000C9476000C9476000C9476000C94760058
:100050000C9476000C9476000C9476000C94760048
:100060000C9476000C9476005B2044495220454D58
:10007000505459205D005265736574207265717526
:1000800069726564004641543332204572726F7262
:100090000053442D43617264204572726F720030C8
:1000A000357331307333307330356D31306D3330FB
:1000B0006D0011241FBECFEFD8E0DEBFCDBF12E030
:1000C000A0E0B1E0E6E2F5E202C005900D92A439AD
:1000D000B107D9F727E0A4E9B2E001C01D92A4312D
:1000E000B207E1F70E947F0D0C948A120C94000075
:1000F000AF92BF92CF92DF92EF92FF920F931F9336
:10010000CF93DF937C0183E5A82E82E0B82E9CE498
:10011000C92E92E0D92ECDE0D7E010E009ECD50150
:10012000ED91FD915D018081F60191916F0189232F
:10013000D9F48881883C88F48F5F88831F5F21967B
:10014000173069F7DF91CF911F910F91FF90EF90DA
:10015000DF90CF90BF90AF900895883C79F70883E7
:10016000812FF7010995EACF1882E8CFCF93DF936B
:1001700000D000D0CDB7DEB7FC01208131814281B3
:100180005381CA01B9010F900F900F900F90DF912A
:10019000CF9108959C01480F591F80E0241735071F
:1001A00049F0FB0181E0D9016D919D0191916917A1
:1001B00011F080E00895BF01F1CF8EBD0DB407FEB0
:1001C000FDCF8DB58F778DBD8EB50895FF920F93BE
:1001D0001F93CF93DF93C82FD42F152F062FF72E01
:1001E0008FEF0E94DD008C2F80640E94DD008F2D38
:1001F0000E94DD00802F0E94DD00812F0E94DD0023
:100200008D2F0E94DD0085E9CC2321F087E8C830DE
:1002100009F08FEF0E94DD00CAE08FEF0E94DD0041
:100220008F3F11F4C150C9F7DF91CF911F910F910A
:10023000FF900895CF93DF9300D000D0CDB7DEB705
:100240009B01AC0122503109410951098091E80616
:100250009091E906A091EA06B091EB060297A109F8
:10026000B109281739074A075B0740F5A091E50651
:10027000B0E00E94820F69837A838B839C83809194
:10028000F4069091F506A091F606B091F706298143
:100290003A814B815C81280F391F4A1F5B1F2983DC
:1002A0003A834B835C8369817A818B819C810F9037
:1002B0000F900F900F90DF91CF91089519821A82BD
:1002C0001B821C82F0CF0F931F93CF93DF93EC011F
:1002D000198218826C817D818E819F8161307105C8
:1002E0008105910551F10091E8061091E9062091F0
:1002F000EA063091EB066017710782079307E8F46E
:10030000611571058105910541F46091F0067091C8
:10031000F1068091F2069091F306688779878A87C3
:100320009B870E941A016C877D878E879F8780E05C
:10033000DF91CF911F910F91089581E0F9CF81E076
:1003400085BD82E08093B1008093B00080937000FF
:1003500083EA84BD17BC18BC7894089515BC10922C
:10036000B1001092B0001092700014BC17BC18BC01
:10037000F8940895E0919402F0E0E050FF4F81E09E
:10038000E030F80718F080818F3231F41082E050AD
:10039000F140E093940208953197F1CF5C9A8AE698
:1003A0008A95F1F700C05C9808959BB1907F9BB946
:1003B0009BB182958F70892B8BB90C94CE01CF9312
:1003C000C82F5F9A0E94D5018C2F8295807F0E9452
:1003D000D50185EF8A95F1F70000CF910895CF936D
:1003E000DF93EC018991811103C0DF91CF910895D2
:1003F0000E94DF01F7CFCF93DF93EC01FE018491E0
:10040000811103C0DF91CF9108950E94DF012196F1
:10041000F5CFCF93C82F5F980E94D5018C2F82957E
:10042000807F0E94D50180EE8A95F1F7CF910895E3
:100430000F931F93CF93DF938B0128E0829FC0011E
:10044000112480640E940902E801085F1F4F89910E
:100450000E94DF01C017D107D1F780E8DF91CF916B
:100460001F910F910C94090280E80E94090280916B
:10047000D206869581700C94DF01CF93DF93C091F3
:10048000D10683E0C89FE0011124C156DF4F8DE8FB
:100490000E940902FE0184910E94DF01FE01319653
:1004A00084910E94DF01FE0132968491DF91CF9109
:1004B0000C94DF018730C8F5E82FF0E0E457FD4EDB
:1004C0000C947C0F8091D20681FF07C08D7F8093B2
:1004D000D2060E9434020C949F0182608093D2065F
:1004E0000E9434020C94AE018091D2068860809301
:1004F000D20608958091D1068530B8F48F5F80933D
:10050000D1060C943D028091D2068460F0CF809198
:10051000D2068160ECCF8091D2068061E8CF8091D5
:10052000D106882311F08150EACF0895CF92DF924F
:10053000EF92FF920F931F93CF93DF93C82F82E820
:10054000C11182EC0E940902CC2ED12C82E1C89FFD
:100550008001112405561D4F7801F80181918F010A
:1005600081111FC08DECC11101C08DE80E940902EC
:1005700082E18C9DF0018D9DF00D1124EA56FD4F16
:100580008481E701219684FF13C081E692E0DF9128
:10059000CF911F910F91FF90EF90DF90CF900C942F
:1005A000EF018E32F9F20E94DF01D6CF0E94DF0107
:1005B00089918111FBCFDF91CF911F910F91FF9016
:1005C000EF90DF90CF90089581E00E9409028FE3C1
:1005D0009FE10197F1F700C000000895D82FC92FBF
:1005E0000E94AE010E94E4028D2F9C2F0E94FB010D
:1005F00080EC0E94090286E790E00E94FB01FFCF99
:100600000E94E4028091950220E4829FC00111249F
:10061000807480580E9409028EE30E94DF0180E00E
:100620000E94960280919502823019F081E00C942C
:1006300096020895AF92BF92CF92DF92EF92FF920F
:100640000F931F93CF93DF93B82EA92EE901780162
:100650002A9880910C0782FD07C089E076956795FE
:10066000579547958A95D1F781E10E94E600182FAA
:10067000D12CC12C882371F02A9A11E0812FDF91AF
:10068000CF911F910F91FF90EF90DF90CF90BF908F
:10069000AF9008958FEF0E94DD008E3F29F18FEF1C
:1006A000C816D80649F3EFEFCE1ADE0AF3CF8FEF64
:1006B0000E94DD00FFEFCF1ADF0ACC15DD05B9F788
:1006C000EC0EFD1ECE15DF0590F08FEFC115F2E0A8
:1006D000DF07C8F00E94DD008FEF0E94DD002A9A3C
:1006E0008FEF0E94DD00CACFD12CC12CE6CFCB2CDE
:1006F000DA2C8FEF0E94DD00F60181936F012196C5
:10070000BE2EAD2CDFCF0E94DD002196DECF0F93F1
:100710001F93CF93DF93CDB7DEB728970FB6F8942A
:10072000DEBF0FBECDBF462F572FBC014230510553
:100730006105710508F449C08091E8069091E906C9
:10074000A091EA06B091EB06481759076A077B07A4
:10075000E0F59A012F773327220F331F220F331F23
:1007600097E076956795579547959A95D1F780913B
:10077000EC069091ED06A091EE06B091EF06480FC1
:10078000591F6A1F7B1F04E010E0CE0101960E94F2
:100790001A0381111AC0CE0101960E94B600DC0135
:1007A000CB01BF708D839E83AF83B8876D817E81BF
:1007B0008F81988528960FB6F894DEBF0FBECDBF07
:1007C000DF91CF911F910F91089581E090E0A0E01B
:1007D000B0E0E8CFCF92DF92EF92FF920F931F939A
:1007E000CF93DF93CDB7DEB72A970FB6F894DEBF6D
:1007F0000FBECDBF8D839E83AD81BE810D911C91B7
:100800000F5F1F4F81F481E02A960FB6F894DEBF88
:100810000FBECDBFDF91CF911F910F91FF90EF9051
:10082000DF90CF900895ED81FE8184859585A68522
:10083000B7850097A105B10531F398012F703327D3
:10084000232BD1F40196A11DB11D84879587A6871E
:10085000B78780859185A285B38589839A83AB8389
:10086000BC83892B8A2B8B2B69F48091E6069091AF
:10087000E7060817190738F6ED81FE81118300831A
:1008800080E0C2CF8091E5068150990B980144E049
:10089000369527954A95E1F782239323892B61F7B3
:1008A00069817A818B819C810E9487036230710506
:1008B0008105910508F4A7CFC090E806D090E9061D
:1008C000E090EA06F090EB066C157D058E059F051D
:1008D00008F099CFED81FE816087718782879387C9
:1008E0000E941A01AD81BE811C966D937D938D93FC
:1008F0009C931F97C1CFCF92DF92EF92FF920F93FD
:100900001F93CF93DF93EC016A017B0102E010E0BB
:100910002EEF31E00E941A0381111EC08881998157
:1009200085359A4AD9F422E530E0A601B701CE0117
:100930000E941A03811114C081E028813981263474
:10094000314409F480E0DF91CF911F910F91FF9026
:10095000EF90DF90CF90089583E0F5CF82E0F3CF62
:1009600081E0F1CFEF92FF920F931F93CF93DF932C
:10097000CDB7DEB7AC970FB6F894DEBF0FBECDBFD4
:100980007C01CE0181969093BD028093BC0282E0EF
:100990004091C6025091C7026091C8027091C9028D
:1009A0004115510561057105E1F481113EC08701D2
:1009B0000B5F1F4F8091C6029091C702A091C802A1
:1009C000B091C902892B8A2B8B2B09F048C0D80122
:1009D0001C928AEB92E00E94EA03823089F580E063
:1009E0002FC02091BA023091BB022F70332785E0CF
:1009F000220F331F8A95E1F700E210E0CE01019645
:100A00000E941A03811111C08981882331F1853E2A
:100A100029F08E3219F08C8583FFC9CF8AEB92E0E2
:100A20000E94EA03882309F4B3CF1092C602109201
:100A3000C7021092C8021092C902823009F4B7CFDF
:100A4000AC960FB6F894DEBF0FBECDBFDF91CF914D
:100A50001F910F91FF90EF90089582E0E6CFDE01A5
:100A600011969701235F3F4F8D91803249F0853079
:100A700009F485EEF8018193E217F30719F589016E
:100A80008985803281F0F8018EE28193DE0119962A
:100A9000C80104968F012D91203229F02193E81787
:100AA000F907C1F78C018C858071D70114968C935E
:100AB000CE014D960E94B600F70160837183828358
:100AC000938385CF8F01D0CF4F925F926F927F92A9
:100AD0008F929F92AF92BF92CF92DF92EF92FF924E
:100AE0000F931F93CF93DF9300D000D000D0CDB7EA
:100AF000DEB76C015B01DB011D921C92809108073F
:100B000090910907A0910A07B0910B074091040743
:100B1000509105076091060770910707841B950B9C
:100B2000A60BB70B8115E2E09E07A105B10520F0E9
:100B300080E092E0A0E0B0E09E838D83812C32E0E3
:100B4000932EED81FE81EF2B11F480E03BC04090AD
:100B50000407509005076090060770900707D301BF
:100B6000C2019170AA27BB27892B8A2B8B2B09F0F6
:100B700076C0F090E506FA94D301C20129E0B6955B
:100B8000A795979587952A95D1F7F82209F042C045
:100B9000411451046104710461F18091FC0690914B
:100BA000FD06A091FE06B091FF06BC01CD010E949A
:100BB0008703462F572FBC0142305105610571054F
:100BC00008F581E026960FB6F894DEBF0FBECDBFC4
:100BD000DF91CF911F910F91FF90EF90DF90CF9019
:100BE000BF90AF909F908F907F906F905F904F904D
:100BF00008954091F8065091F9066091FA067091B7
:100C0000FB06DACF4093FC065093FD066093FE0688
:100C10007093FF068091FC069091FD06A091FE0660
:100C2000B091FF0689839A83AB83BC83BC01CD015D
:100C30000E941A01462F572FBC014115510561052D
:100C4000710509F4BECF4F0D511D611D711D4093FB
:100C50000007509301076093020770930307920106
:100C600031707401E21AF30AAD81BE81AE15BF0581
:100C700008F47D014091000750910107609102073F
:100C8000709103078701C6010E941A03811199CF51
:100C90004E0C5F1C611C711C4092040750920507AA
:100CA0006092060770920707ED81FE81EE19FF0939
:100CB000FE83ED83D5018D919C9111978E0D9F1D23
:100CC0008D939C93C114D10409F43BCFCE0CDF1C4F
:100CD00038CF4F925F926F927F928F929F92AF9296
:100CE000BF92CF92DF92EF92FF92CF93DF93CDB777
:100CF000DEB729970FB6F894DEBF0FBECDBF462FE3
:100D0000572FBC018090080790900907A0900A0710
:100D1000B0900B07481559056A057B0510F44A0188
:100D20005C018091040790910507A0910607B0919E
:100D300007071092040710920507109206071092F9
:100D4000070781149104A104B10409F4A0C0209103
:100D5000E5062987422E512C712C612C29E0440C88
:100D6000551C661C771C2A95D1F70097A105B10583
:100D700009F4A2C09C01AD0121503109410951097A
:100D800029833A834B835C83D501C4010197A10970
:100D9000B109BC01CD01A30192010E945A0F690162
:100DA0007A0169817A818B819C81A30192010E94E1
:100DB0005A0FC216D306E406F50608F47DC088274C
:100DC0009927DC0184199509A609B70929813A8177
:100DD0004B815C8182239323A423B5238093040752
:100DE00090930507A0930607B0930707881A990AFE
:100DF000AA0ABB0A6091FC067091FD068091FE066E
:100E00009091FF06481459046A047B0408F465C0F5
:100E1000C0900407D0900507E0900607F090070700
:100E2000C80CD91CEA1CFB1CC0920407D092050711
:100E3000E0920607F09207070E941A01462F572FEB
:100E4000BC01411551056105710509F189E0F69470
:100E5000E794D794C7948A95D1F7A985A150BB0B85
:100E6000CD01092E000CAA0BBB0B8C219D21AE21BC
:100E7000BF216C017D01C40ED51EE61EF71EC09277
:100E80000007D0920107E0920207F092030729962B
:100E90000FB6F894DEBF0FBECDBFDF91CF91FF90AC
:100EA000EF90DF90CF90BF90AF909F908F907F900A
:100EB0006F905F904F9008956091F8067091F906D9
:100EC0008091FA069091FB066093FC067093FD06F4
:100ED0008093FE069093FF0695CF0E9487036230B1
:100EE00071058105910598F2C090E806D090E90659
:100EF000E090EA06F090EB066C157D058E059F05E7
:100F000030F66093FC067093FD068093FE06909386
:100F1000FF06C0900407D0900507E0900607F09008
:100F20000707C40CD51CE61CF71CC0920407D0921E
:100F30000507E0920607F092070784189508A608AF
:100F4000B70860CFAF92BF92CF92DF92EF92FF923D
:100F50000F931F93CF93DF937C016B0180E091E0AF
:100F60005C01FC01208101962032D1F32F3209F47B
:100F70005C01F7011482158216821782F5018081C7
:100F8000803208F06AC0C7010E946301C82FF601D1
:100F900010828C2FDF91CF911F910F91FF90EF90D6
:100FA000DF90CF90BF90AF900895A40EB11C91E058
:100FB000813208F090E09B87C7010E946301C82F2F
:100FC0008111E7CFF701208131812F70332745E070
:100FD000220F331F4A95E1F744855585668577854D
:100FE00000E210E0C6010E941A03C82F8111D1CF80
:100FF000F60180818823A1F0D385CD2FC870D3FD61
:101000000BC0F701028113814BE050E0B801C6012B
:101010000E94CA00811106C0C7010E94EA03CFCF17
:10102000C1E0B7CFF80183858111B3CFD4FFF8CFEA
:10103000F60184899589B0E0A0E0DC019927882732
:10104000428D538D70E060E0842B952BA62BB72B3F
:10105000F70184839583A683B783F701C281D38187
:101060004BE050E060E270E0CE010E949C0F20E077
:1010700080E098E041E0480FF501E80FF11D808124
:10108000813208F492CF8F3209F48FCF8E3299F0EB
:10109000291708F08ACF3FE9380F3A3108F4805217
:1010A000FE01E20FF11D8083392F91E0920F292F6D
:1010B000842F932FDFCF983009F077CF3BE0F7CF25
:1010C000CF93DF93CDB7DEB7AC970FB6F894DEBF02
:1010D0000FBECDBFCE0181969093BD028093BC021E
:1010E000BE016F5F7F4F8AEB92E00E94A2078111E1
:1010F00021C089818823D1F08C8584FF1BC08D8914
:101100009E89B0E0A0E0DC01992788274B8D5C8D9B
:1011100070E060E0842B952BA62BB72B8093BE024A
:101120009093BF02A093C002B093C1028AEB92E0F9
:101130000E946301AC960FB6F894DEBF0FBECDBF20
:10114000DF91CF910895109295020E94600886E980
:1011500092E00E94B204882351F00E94E40288E6E3
:1011600090E00E94FB0183E080939502089588EA55
:1011700092E00E94B204882319F082E080939502E5
:101180000C9400032F923F924F925F926F927F9246
:101190008F929F92AF92BF92CF92DF92EF92FF9287
:1011A0000F931F93CF93DF93CDB7DEB7C854D10908
:1011B0000FB6F894DEBF0FBECDBF823009F42DC349
:1011C00030F590919502811172C0192F933010F56E
:1011D0009130D1F510929502C85BDF4F0FB6F894AD
:1011E000DEBF0FBECDBFDF91CF911F910F91FF905A
:1011F000EF90DF90CF90BF90AF909F908F907F90B7
:101200006F905F904F903F902F900C94000384302C
:1012100009F424C3C85BDF4F0FB6F894DEBF0FBEDE
:10122000CDBFDF91CF911F910F91FF90EF90DF9095
:10123000CF90BF90AF909F908F907F906F905F9076
:101240004F903F902F9008959111C6CF0E94600853
:10125000CE0181960E94B2048111BECF6BE972E08B
:10126000CE0186960E94A30F892BB1F4113009F0AC
:10127000B3CF82E1FE013196A6E9B2E001900D9272
:101280008A95E1F782E1FE01B196A8EAB2E0019009
:101290000D928A95E1F7A0CF82E1FE01B196DE01C1
:1012A000119601900D928A95E1F711E0D1CF93301C
:1012B00008F0B0CFA92FA170292F217030E0E09164
:1012C000940281E08E0FF0E0E050FF4F9FE29083A8
:1012D00042E1A49FD0011124A556BD4F9D91E82F56
:1012E000F0E041E0480FE050FF4F9111EAC08093D9
:1012F0009402108282E1829FF001839FF00D1124FD
:10130000EA56FD4F848184FDB2C21E0153E3250ECF
:10131000311C40E1442E4EE0542E612C712C5CE3D4
:10132000C52ED12CE12CF12C21961FAE1EAE21979B
:101330003CA22BA2BE016F5F7F4FCE0181960E941F
:10134000A207982F8981882309F4B8C08C85807101
:10135000892B09F0B3C08D899E89B0E0A0E0DC0143
:10136000992788274B8D5C8D70E060E0842B952B4E
:10137000A62BB72B8093F8069093F906A093FA0654
:10138000B093FB06CE014D960E94B600609308070D
:101390007093090780930A0790930B071092040734
:1013A000109205071092060710920707BE016F5FA3
:1013B0007F4F81ED92E00E94640581117FC0898199
:1013C0009A818115924009F079C044E050E065E6C9
:1013D00072E081ED92E00E94CA00882309F46EC099
:1013E00048E050E06AE672E089ED92E00E94CA00AF
:1013F000882309F463C081EE92E00E94B60025962E
:101400006CAF7DAF8EAF9FAF2597603171058105C1
:10141000910509F053C08091E5029091E602019791
:1014200009F04CC08091E7028093D3068091D306E7
:10143000813029F08091D306823009F03FC089EED7
:1014400092E00E94B600462F572FBC01ECE0F2E07C
:1014500090E080E0A82F0081118122813381401724
:1014600051076207730781F5E5E0E89F9001E99F66
:10147000300D1124245F3D4FF90184818093D406FF
:101480004093E1065093E2066093E3067093E4060E
:10149000A830A1F005EF12E02EECA22E24E0B22E2F
:1014A00044E050E063E772E0C8010E94CA00811185
:1014B000F9C10F5F1F4FA016B10691F70E94BA0144
:1014C0008BCE9083842F0ACF019635968830910574
:1014D00009F0C0CFA8E0D4CF8F3209F48F018191F9
:1014E0008111FACFD8018D918D01882319F08E32A8
:1014F00009F057C08CE80E94090282E00E94DF01D7
:101500000E943D0281EC0E9409025091D706409151
:10151000D6063091D5062091DA069091D9068091B1
:10152000D8061F925F931F924F931F923F931F9273
:101530002F931F929F931F928F9388E792E09F9320
:101540008F931F9280E28F93E1E0F0E0EC0FFD1F9C
:10155000FF93EF930E94AC0FCE0101960E94EF0122
:101560000FB6F894DEBF0FBECDBF812C912C540175
:1015700000E28091DD069091DE06A091DF06B09139
:10158000E00688169906AA06BB0640F48AE592E0B2
:101590000E9478008091D20680FF06C00E94AE01B2
:1015A0008DCF0E94DF019ECF82FF03C00E94AE015B
:1015B000BBCE83FF50C06091D3062091E1063091ED
:1015C000E2064091E3065091E406E091D106F0E096
:1015D000EE0FFF1FE050FE4F80819181689FD00188
:1015E000699FB00D11240E94820FDC01CB01880D90
:1015F000991DAA1DBB1D25968CAF9DAFAEAFBFAF89
:1016000025978091DD069091DE06A091DF06B091CE
:10161000E00625962CAD3DAD4EAD5FAD2597281764
:1016200039074A075B0790F40E94AE0125966CAD1E
:101630007DAD8EAD9FAD25970E9469060E949F01EA
:1016400025968CAC9DACAEACBFAC25978091D206F4
:10165000877F8093D2068091D20684FF3FC060913D
:10166000D3062091E1063091E2064091E3065091C5
:10167000E406E091D106F0E0EE0FFF1FE050FE4FD0
:1016800080819181689FD001699FB00D11240E94D3
:10169000820FA5019401261B370B480B590B259689
:1016A0002CAF3DAF4EAF5FAF259757FD12C00E94E4
:1016B000AE0125966CAD7DAD8EAD9FAD25970E9498
:1016C00069060E949F0125968CAC9DACAEACBFAC68
:1016D00025978091D2068F7E8093D2068091CE028C
:1016E000882309F446CF8091CA029091CB02BE01B3
:1016F000615C7F4F8F529D4F0E94640581114ECFD8
:1017000021968EAD9FAD2197811532E0930708F4A5
:1017100045CF880E991EA11CB11C1092CE022091BB
:10172000E1063091E2064091E3065091E406109103
:10173000D306C501B4010E945A0F25962CAF3DAFC8
:101740004EAF5FAF2597212F30E050E040E0259667
:101750006CAD7DAD8EAD9FAD25970E945A0F25963D
:101760002CAF3DAF4EAF5FAF2597CA01B901A301C2
:1017700092010E945A0F29962CAF3DAF4EAF5FAF3A
:101780002997CA01B90128E130E040E050E00E9409
:101790005A0F6093D80625966CAD7DAD8EAD9FAD8A
:1017A0002597A70196010E945A0F25962CAF3DAFB1
:1017B0004EAF5FAF2597162FCA01B901A701960159
:1017C0000E945A0F6093D9061093DA0681EC0E94AA
:1017D00009022091DA069091D9068091D8061F92CD
:1017E0002F931F929F931F928F9346E852E05F932F
:1017F0004F931F920F93A1E0B0E0AC0FBD1FBF93BA
:10180000AF930E94AC0FCE0101960E94EF010FB67C
:10181000F894DEBF0FBECDBFACCE80919502833071
:1018200008F0F8CC811104C081E080939502D4CCFB
:10183000813009F0D1CCCE0101960E94B204811111
:10184000E9CC82E1E8EAF2E0A6E9B2E001900D928B
:101850008A95E1F782E1FE01319617CD109194024D
:101860000E94BA0180919402811708F0D3CCC85B22
:10187000DF4F0FB6F894DEBF0FBECDBFDF91CF9123
:101880001F910F91FF90EF90DF90CF90BF90AF909E
:101890009F908F907F906F905F904F903F902F9090
:1018A0000C94A308C801895C92409093DC06809355
:1018B000DB06C80104960E94B600462F572FBC01D4
:1018C0004093DD065093DE066093DF067093E006DA
:1018D0008091D206807E8093D2061092CD02109223
:1018E000CC0280E092E09093CB028093CA02809178
:1018F000DB069091DC069093D0028093CF0280911A
:10190000D4068093B3000E949F012091DD063091A0
:10191000DE064091DF065091E00625962CAF3DAFE4
:101920004EAF5FAF25972091E1063091E2064091DE
:10193000E3065091E4061091D30625966CAD7DAD7B
:101940008EAD9FAD25970E945A0F25962CAF3DAFC7
:101950004EAF5FAF2597212F30E050E040E0259655
:101960006CAD7DAD8EAD9FAD25970E945A0F25962B
:101970002CAF3DAF4EAF5FAF25971092D8061092B7
:10198000D9061092DA06CA01B901A30192010E9498
:101990005A0F29962CAF3DAF4EAF5FAF2997CA01C2
:1019A000B90128E130E040E050E00E945A0F609316
:1019B000D50625966CAD7DAD8EAD9FAD2597A70163
:1019C00096010E945A0F25962CAF3DAF4EAF5FAFE8
:1019D0002597162FCA01B901A70196010E945A0F37
:1019E0006093D6061093D7060E94E4020E94340248
:1019F00082E80E940902E0E0F1E070CD1F921FB67C
:101A00001F9211242F933F934F938F939F93EF93A4
:101A1000FF934091D3068091CF029091D0029C0118
:101A20002F5F3F4F3093D0022093CF02E091CC0242
:101A3000F091CD02EF52FD4FE80FF91F808187BD75
:101A4000413049F588BD8091CF029091D002811537
:101A50009240B1F41092D0021092CF028091CC0249
:101A60009091CD022091CA023091CB023093CD02E9
:101A70002093CC029093CB028093CA024093CE0273
:101A8000FF91EF919F918F914F913F912F911F90D7
:101A90001FBE1F9018958091CF029091D0029C019B
:101AA0002F5F3F4F3093D0022093CF02E091CC02C2
:101AB000F091CD028F529D4FE80FF91F808188BDB4
:101AC0008091CF029091D00281159240C9F6109278
:101AD000D0021092CF028091CC029091CD02209141
:101AE000CA023091CB023093CD022093CC02909366
:101AF000CB028093CA0281E08093CE02C1CFCDB7E2
:101B0000DEB7AC970FB6F894DEBF0FBECDBF8AB17B
:101B10008F698AB98BB180768BB98FE59AEE019780
:101B2000F1F700C0000080E30E94D501AFE1BEE400
:101B30001197F1F700C000000E94CE018FE99FE0ED
:101B40000197F1F700C000000E94CE01AFE9BFE0AD
:101B50001197F1F700C0000080E20E94D5018FE1EB
:101B60009EE40197F1F700C0000088E20E9409029C
:101B70008CE00E94090286E00E9409020E94E402B1
:101B800064E472E080E00E9418026CE372E081E09D
:101B90000E94180264E372E082E00E94180285B19C
:101BA000836085B988B18F6188B98AB180668AB946
:101BB00084B18C6284B924982A9A83E58CBD8DB552
:101BC0008E7F8DBD10920C070AE010E08FEF0E940F
:101BD000DD0001501109D1F72A9800E012E040E041
:101BE00050E0BA0180E00E94E600813041F00150EF
:101BF0001109A9F72A9A81E990E00E94EE024AEAC7
:101C000051E060E070E088E00E94E60082FD37C0AD
:101C10008FEF0E94DD008FEF0E94DD008FEF0E94AA
:101C2000DD0080FFE8CF8FEF0E94DD008A3A19F7D0
:101C300080910C07826080930C07E12C90E8F92ECC
:101C400010910C07812F837061F1B12CC12CD12C24
:101C500000E411FF00E040E050E0BA0187E30E9499
:101C6000E6004B2D5C2D6D2D702F89E20E94E60061
:101C700080FF1CC091E0E91AF10811F7BBCF40E0EA
:101C800050E0BA0187E30E94E60040E050E0BA016C
:101C900089E20E94E60082FDD0CF80910C0781602E
:101CA000CACF40E050E0BA0181E0E0CF11FF19C097
:101CB00040E050E0BA018AE30E94E60081119ACF29
:101CC0008FEF0E94DD0086FF03C0146010930C07A5
:101CD0008FEF0E94DD008FEF0E94DD008FEF0E94EA
:101CE000DD0040E052E060E070E080E10E94E6004C
:101CF0002A9A811180CF8CB58C7F8CBD8DB5816087
:101D00008DBDAFEFB9EF20E0A150B0402040E1F72A
:101D100000C0000040E050E0BA01CE0101965C0135
:101D20000E947B044501C12CD12C76018823E9F067
:101D300000E110E02EEB31E040E050E0BA01C501D7
:101D40000E941A038111B3C08D81882309F4AFC0AA
:101D5000CE0109960E94B6006B017C01BC01A60170
:101D6000C5010E947B048111A2C004E210E02DE0B5
:101D700030E0B701A601C4010E941A03811197C087
:101D80008A859B859C0150E040E0892B31F4CE018F
:101D900048960E94B6009B01AC01AC81B0E00E9465
:101DA000820F69A77AA78BA79CA78A809B80B12CFA
:101DB000A12CC80CD91CEA1CFB1CC092EC06D092CA
:101DC000ED06E092EE06F092EF0639803092E506DD
:101DD0000D811E811093E7060093E6068F8198859A
:101DE000AC0170E060E0892B39F4CE0144960E948A
:101DF000B600462F572FBC0184E0169507958A95AB
:101E0000E1F72801712C612C840C951CA61CB71CD1
:101E100089A59AA5ABA5BCA5880E991EAA1EBB1EB6
:101E2000DB01CA0188199909AA09BB09232D30E0F1
:101E300050E040E0BC01CD010E945A0FDA01C90117
:101E40000296A11DB11D8093E8069093E906A09328
:101E5000EA06B093EB06873F9F4FA105B10538F125
:101E6000CE0180960E94B6006093F0067093F10652
:101E70008093F2069093F306C40CD51CE61CF71C65
:101E800089A59AA5ABA5BCA5C80ED91EEA1EFB1E46
:101E9000C092F406D092F506E092F606F092F706AC
:101EA0000E94A30882EC98E00E947800FBCF85E8AE
:101EB00090E0A3CEA1E21A2EAA1BBB1BFD010DC010
:101EC000AA1FBB1FEE1FFF1FA217B307E407F507EA
:101ED00020F0A21BB30BE40BF50B661F771F881FC6
:101EE000991F1A9469F760957095809590959B015C
:101EF000AC01BD01CF010895EE0FFF1F0590F491D5
:101F0000E02D09940E948D0FA59F900DB49F900D18
:101F1000A49F800D911D11240895A29FB001B39F2D
:101F2000C001A39F700D811D1124911DB29F700DE2
:101F3000811D1124911D0895DC0101C06D93415054
:101F40005040E0F70895FB01DC018D91019080196C
:101F50000110D9F3990B0895AEE0B0E0E2EBFFE099
:101F60000C9461120D891E898F89988D26E02C832F
:101F70001A83098397FF02C080E090E801979E834F
:101F80008D83AE01455E5F4F698D7A8DCE010196DE
:101F90000E94DC0F4D815E8157FD0AC02F8138857C
:101FA000421753070CF49A01020F131FF801108215
:101FB0002E96E4E00C947D12AFE0B0E0E2EEFFE09C
:101FC0000C9453127C013B018A01DC0117961C9290
:101FD0001E92169713968C9181FFBEC19AE0292E0E
:101FE000FE0131964F01D70113969C91F30193FDA9
:101FF000859193FF81913F01882309F444C1853283
:1020000039F493FD859193FF81913F01853229F445
:10201000B70190E00E94C511E6CFB12C412C512CA4
:10202000BFE1B51538F08B3209F188F4803201F147
:10203000833221F157FC3AC020ED280F2A3040F5B9
:1020400056FE1FC0B29C200D1124B22E06C08D3248
:1020500091F0803379F7689450F8F30193FD8591FE
:1020600093FF81913F018111DBCF20C0689451F82B
:10207000689452F8F2CF689453F8EFCF689454F80C
:10208000ECCF429C200D1124422E689455F8E5CFE8
:102090008E3229F456FCF7C0689456F8DECF8C36A1
:1020A00019F4689457F8D9CF8836B9F2982F9F7DE4
:1020B00095549330C0F08336A1F18337C1F1833555
:1020C00009F05BC0D801CD90DD908D016B2D70E0E3
:1020D00056FC02C06FEF7FEFC6010E94AF115C019A
:1020E000689457F80AC00C5F1F4FEFE3E983AA24F6
:1020F000A394B12C6401E89457F853FC04C04A142B
:102100001B0409F018F5342CA114B10431F5332067
:1021100009F469CFB70180E290E00E94C5113A94BA
:10212000F6CFD8018C9189830E5F1F4FE0CFF80165
:10213000C190D1908F016B2D70E056FC02C06FEF03
:102140007FEFC6010E94BA115C01D5CFB70180E2D2
:1021500090E00E94C5114A94D2CFF60157FC8591B8
:1021600057FE81916F01B70190E00E94C5113110B7
:102170003A94B1E0AB1AB108C7CF843619F089366A
:1021800009F071C0F80157FE67C0619171918191AA
:1021900091918F01E52DEF76DE2E97FF09C0909586
:1021A0008095709561957F4F8F4F9F4F6894D7F8BA
:1021B0002AE030E0A4010E94F511C82EC818AC2C0A
:1021C0005D2CD6FE0CC0E89450F8CB1440F4D4FE3D
:1021D00005C0D2FC03C05D2D5E7E552EAB2C54FE97
:1021E00093C0FE01EC0DF11D8081803309F085C0A4
:1021F000652D697E562E752D7870372E53FC93C051
:1022000050FE8DC0BC2CA41410F4B40CBA1854FEAB
:1022100090C0B70180E390E00E94C51152FE07C054
:1022200088E751FC88E590E0B7010E94C511CB1406
:1022300008F48BC0CA94D12C8FEFC81AD80AC80CE6
:10224000D91CD6018E916D01B70190E00E94C51195
:102250008C149D04B1F75BCF61917191072E000C36
:10226000880B990B96CFD52CE894D4F82AE08537C3
:1022700029F1F52DF97FDF2E8037A1F058F488354C
:10228000A1F08F36D1F0F701868197812F96E2E198
:102290000C946F128837B9F7D4FE02C06894D2F854
:1022A00020E10CC06894D4F8F7CF54FE03C02F2F60
:1022B0002660D22E20E132E002C028E030E0F801B2
:1022C000D7FE15C041915191619171914C875D8705
:1022D0006E877F878F01A4016C857D858E859F85A4
:1022E0000E94F511C82EC818E894D7F868CF8191DC
:1022F0009191AC0170E060E0E9CF52FC02C0A39480
:102300007ACFA394A39477CF852D867809F473CFE1
:10231000F6CFB70180E290E00E94C511A394A41407
:10232000C0F3312C74CF342C3A18A41408F46FCFB6
:10233000F8CF852D867809F47ACF8BE251FE80E2C2
:1023400057FC8DE2B70190E070CFB70180E390E0D9
:102350000E94C511BA946BCF8FEF9FEF97CFFC010E
:102360000590615070400110D8F7809590958E0FC0
:102370009F1F0895FC016150704001900110D8F733
:10238000809590958E0F9F1F08950F931F93CF9365
:10239000DF93182F092FEB018B8181FD09C01FEFFF
:1023A0000FEF812F902FDF91CF911F910F91089503
:1023B00082FF14C02E813F818C819D8128173907AF
:1023C0003CF4E881F981CF010196998388831083D9
:1023D0008E819F8101969F838E83E3CFE885F98567
:1023E000812F0995892BA1F3DACFFA01AA2728308A
:1023F00051F1203181F1E8946F936E7F6E5F7F4FD2
:102400008F4F9F4FAF4FB1E03ED0B4E03CD0670F4D
:10241000781F891F9A1FA11D680F791F8A1F911DA0
:10242000A11D6A0F711D811D911DA11D20D009F4F0
:1024300068943F912AE0269F11243019305D319332
:10244000DEF6CF010895462F4770405D4193B3E01B
:102450000FD0C9F7F6CF462F4F70405D4A3318F0C2
:10246000495D31FD4052419302D0A9F7EACFB4E073
:10247000A6959795879577956795BA95C9F700972B
:102480006105710508959B01AC010A2E06945795CC
:10249000479537952795BA95C9F7620F731F841F23
:1024A000951FA01D08952F923F924F925F926F92B9
:1024B0007F928F929F92AF92BF92CF92DF92EF92D4
:1024C000FF920F931F93CF93DF93CDB7DEB7CA1B55
:1024D000DB0B0FB6F894DEBF0FBECDBF09942A8880
:1024E000398848885F846E847D848C849B84AA8428
:1024F000B984C884DF80EE80FD800C811B81AA81B5
:10250000B981CE0FD11D0FB6F894DEBF0FBECDBF7F
:10251000ED010895F894FFCF620274027A028302FB
:0625200087028B028F020E
:102526002F00000000000000000000000000000076
:102536000000000000000000000000000000000095
:102546000000000000000000000000000000000085
:102556000000000000000000000000000000000075
:102566000000000000000000000000000000000065
:102576000000000000000000000000000000000055
:102586000000000000000000000000000000000045
:102596000000000000000000000000000000000035
:1025A6000000000000000000000000000000000025
:1025B6000000000000000000000000000000000015
:1025C6000000000000000000000000000000000005
:1025D60000000000000000000000000000000000F5
:1025E60000000000000000000000000000000000E5
:1025F60000000000000000000000000000000000D5
:1026060000000000000000000000000000000000C4
:1026160000000000000000000000000000000000B4
:1026260005000A001E002C0158020807401F000082
:10263600FA112B0000B5803E00007D225600005B9B
:10264600C05D000053007D00003F44AC00002D80BB
:10265600BB00002A04041F0404001F00001B1B1BF0
:102666001B1B0000080C0E0F0E0C080001100804BE
:10267600020102230026002600260026002600234B
:102686000044495200524946460057415645666D38
:1026960074200064617461002531643A2530326427
:1026A6003A253032642F2531643A253032643A2592
:0426B600303264005A
:00000001FF
